:100000000C942F000C944C000C944C000C944C005D
:100010000C944C000C944C000C94E8020C944C0092
:100020000C944C000C944C000C944C000C944C0020
:100030000C944C000C944C000C944C000C944C0010
:100040000C944C000C944C000C944C000C944C0000
:100050000C944C0053454E534F5253200000112432
:100060001FBECFE5D4E0DEBFCDBF10E0A0E6B0E01C
:10007000E4EEF9E002C005900D92A036B107D9F781
:1000800010E0A0E6B0E001C01D92A338B107E1F78F
:100090000E941D030C94F0040C94000088B3807F30
:1000A00088BB87B3876087BB089587B3806F87BBA2
:1000B000089587B38F7087BB88B3806F88BB08951E
:1000C00082E08A95F1F708958823E1F487B38F7071
:1000D00087BB88B3806F88BBC298C19A22E0C09A60
:1000E000822F8A95F1F786B3C098922F9A95F1F7EF
:1000F000C09A922F9A95F1F7C098922F9A95F1F79E
:1001000087FDEDCF0895FF920F931F93082F162FB1
:10011000F42E842F0E946400112309F037C0C29886
:10012000C198C09A87B3806F87BB88B3902F907FA8
:100130008F70982B98BB92E0892F8A95F1F7C09821
:10014000892F8A95F1F781E0F81641F4C09A892F3A
:100150008A95F1F7C098892F8A95F1F7C09A88B3EC
:100160000295007F8F70802B88BB92E0892F8A9543
:10017000F1F7C09887B38F7087BB88B3806F88BB57
:100180009A95F1F71F910F91FF900895113009F0A2
:10019000C7CFC29AC5CF88B3807F88BB87B387603B
:1001A00087BB20E137E248EC50E0CA010197F1F744
:1001B00021503040D1F788E260E041E00E948300A6
:1001C00080E197E20197F1F788E260E042E00E9467
:1001D000830088EC90E00197F1F788E260E042E06C
:1001E0000E94830081E060E040E00E94830086E09E
:1001F00060E040E00E9483008CE060E040E00E940C
:10020000830081E060E040E00E9483000895D5987B
:10021000DD980895D59ADD9A0895BC01843691053C
:1002200070F120E32F5F6456704064367105D0F79B
:100230006A30710530F180E38F5F6A5070406A3038
:100240007105D0F790E0A0E0B0E0BA2FA92F982F69
:10025000882730E040E050E0A90133272227282BEF
:10026000392B4A2B5B2B862F805D90E0A0E0B0E01D
:10027000282B392B4A2B5B2BB901CA01089520E3A7
:10028000D7CF80E090E3A0E0B0E0E3CF982F9F705D
:10029000282F22952F709A3060F4492F405D2A3024
:1002A00060F0295C30E0942F80E0282B392BC901C5
:1002B0000895492F495C2A30A0F7205D30E0942F43
:1002C00080E0282B392BC9010895F894D59ADD9A3E
:1002D0008DE08A95F1F7DD988AEC93E00197F1F7CC
:1002E000DD9AD598DD9880EA8A95F1F7CD9B07C015
:1002F00080EC93E00197F1F7789480E0089580EC2A
:1003000093E00197F1F781E00895D59ADD9A8DE0A9
:100310008A95F1F7DD9885E08A95F1F7D598DD9813
:1003200088E28A95F1F789B398E79A95F1F790E01A
:1003300096958795929582958F7089279F708927CA
:1003400081700895F894D59ADD9A9DE09A95F1F719
:10035000DD98882339F485EA8A95F1F7D598DD98F8
:10036000789408958AE18A95F1F7D598DD9885E823
:100370008A95F1F7789408950F931F9310E007C0C2
:100380000068173008F406951F5F183031F00E949E
:1003900085018823A9F70F77F4CF802F1F910F9144
:1003A0000895CF93DF93C0E0D0E00E94BC01FE012E
:1003B000E658FF4F80832196C930D105B1F7DF9110
:1003C000CF910895FF920F931F93CF93DF93F82E51
:1003D000C0E0D0E001E010E0C8010C2E02C0880FA0
:1003E000991F0A94E2F78F210E94A2012196C8303A
:1003F000D10591F7DF91CF911F910F91FF90089553
:10040000DF92EF92FF920F931F93CF93DF938C01B4
:10041000D62EA1E0EA2EF12CC0E0D0E090E09701CA
:100420000C2E02C0220F331F0A94E2F7F8018081DC
:100430008223823008F091E0892F0E94A201219648
:10044000C830D10559F7DD2021F00F5F1F4FDA9436
:10045000E3CFDF91CF911F910F91FF90EF90DF904D
:1004600008957F928F929F92AF92BF92CF92DF9228
:10047000EF92FF920F931F93CF93DF93EE241FEF22
:1004800031E0A32EB12C0E94650180EF0E94E201B1
:10049000FF2400E077247A948E2D90E0EC01CC0FBD
:1004A000DD1FCC0FDD1FCC0FDD1F812E992487FCB3
:1004B00090946C010894C108D108CC0CDD1CCC0CC4
:1004C000DD1CCC0CDD1C04C00F5F87E08F1528F10C
:1004D0000E948501182F0E948501181789F14F2D60
:1004E00050E09501002E02C0220F331F0A94E2F75C
:1004F0001123E9F1912FFE01E40FF51FEE59FF4F93
:100500008081822B8083892F0E94A2010730E0F234
:10051000F39400E087E08F15D8F6E394172D77FE6B
:10052000B2CF8E2DDF91CF911F910F91FF90EF9061
:10053000DF90CF90BF90AF909F908F907F90089565
:100540006F2D660F660F660F600F862F90E088157F
:10055000990599F188169906B4F44F2D50E095014C
:10056000002E02C0220F331F0A94E2F7762EFE01FE
:10057000E40FF51FEE59FF4F9081822F809589235C
:10058000808390E0C0CF4F2D50E0F601E40FF51FBF
:10059000EE59FF4FE0819501002E02C0220F331F5C
:1005A0000A94E2F780E0121613060CF481E0982F0B
:1005B0009E2309F0A0CF762EDACF4F2D50E0950183
:1005C000002E02C0220F331F0A94E2F791E093CF6E
:1005D0001F920F920FB60F9211248F939F938091C9
:1005E000600080958F70809360008BB39091600065
:1005F000807F892B8BBB81E0809361009F918F91DD
:100600000F900FBE0F901F901895CF93DF93EC01C2
:10061000FC018491882371F0FE01849190E061E0F7
:1006200070E040E050E00E9483002196FE0184913A
:10063000882391F7DF91CF9108954F925F926F9247
:100640007F928F929F92AF92BF92CF92DF92EF9262
:10065000FF920F931F93CF93DF93F89489B7806134
:1006600089BF8DE08EBD1FBC8FE78BBD8FEF8ABD2C
:100670001DBC1CBC8AB38F608ABB8BB3807F8BBBD5
:1006800078940E94CB0084E590E00E9405030E94CC
:100690006501882309F0F8C0552480E29EE428EC27
:1006A00030E0F9013197F1F70197D9F718EC612E95
:1006B000712CB0E14B2E809161008823E1F30E9400
:1006C00065018CEC0E94E20184E40E94E20120E1D9
:1006D00037E2C3010197F1F721503040D1F781E0B3
:1006E00090E060E070E040E050E00E9483008824E9
:1006F00099240E94650185E50E94E201C0E0D0E0F6
:100700008401000F111F000F111F000F111FF801AE
:10071000EC0FFD1FEE59FF4F80810E94E2012196F0
:10072000C830D105A1F78EEB0E94E2010E94D101F1
:1007300080917B00882309F001C180917A00869521
:10074000282F30E02436310508F441C140E34F5FE3
:100750002456304024363105D0F72A30310508F4CC
:100760002EC180E38F5F2A5030402A303105D0F708
:1007700090E0A0E0B0E0AA24B82EC92EDA2E842F93
:1007800090E0A0E0B0E08C01FF24EE24EA28FB28F2
:100790000C291D29822F805D90E0A0E0B0E0E82ABE
:1007A000F92A0A2B1B2B80917B00882309F0C3C0F8
:1007B00080918000942D981B892F83FDB9C0C0E0E3
:1007C000D0E082FF02C0C650DF4F81FF02C0C35895
:1007D000DF4F80FDEE9681E0881540F480EC90E0DC
:1007E00060E070E040E050E00E94830080917B0078
:1007F000882309F0D1C0C801AA27BB27813308F09C
:10080000B8C0BB27A12F902F8F2D813308F0CDC00A
:100810008E2D90E061E070E040E050E00E948300A7
:100820008EE290E061E070E040E050E00E948300E2
:10083000C436D10508F4C1C080E38F5FC456D040F0
:10084000C436D105D0F7CA30D10530F090E39F5FB0
:100850002A97CA30D105D8F790E061E070E040E017
:1008600050E00E94830080E290E061E070E040E0B0
:1008700050E00E948300109261000894811C911C3A
:10088000851408F436CF17CF0E943102582E282F36
:1008900030E02436310508F49CC040E34F5F245615
:1008A000304024363105D0F72A30310508F493C0A2
:1008B00080E38F5F2A5030402A303105D0F790E036
:1008C000A0E0B0E0BA2FA92F982F8827E42EFF24AC
:1008D00000E010E08701FF24EE24E82AF92A0A2B21
:1008E0001B2B822F805D90E0A0E0B0E0E82AF92A7F
:1008F0000A2B1B2BC801AA27BB2790E061E070E000
:1009000040E050E00E948300BB27A12F902F8F2D45
:1009100090E061E070E040E050E00E9483008E2DA6
:1009200090E061E070E040E050E00E948300B5CECE
:10093000C4EFD1E046CF809180003FCF80917A0014
:1009400081958695282F30E024363105F0F140E37B
:100950004F5F2456304024363105D0F72A30310518
:1009600070F180E38F5F2A5030402A303105D0F794
:10097000FFCE90E061E070E040E050E00E94830034
:10098000BB27A12F902F8F2D90E061E070E040E019
:1009900050E00E9483003CCF8DE290E061E070E087
:1009A00040E050E00E94830026CF90E061E070E0DC
:1009B00040E050E00E9483002BCF80E344CFA12C85
:1009C000F0E3BF2EC12CD12CDACE40E3C7CF40E3F9
:1009D000C4CE40E369CF80E090E3A0E0B0E076CF02
:0409E000F894FFCFB9
:00000001FF
